:100000000C9436010C9467010C9467010C94670101
:100010000C9467010C9467010C9467010C946701C0
:100020000C9467010C9467010C9467010C946701B0
:100030000C9467010C94BA040C9467010C9467014A
:100040000C9467010C9467010C9467010C94670190
:100050000C9467010C9467010C9467010C9459058A
:100060000C9467010C9467010C9467010C94670170
:100070000C9467010C9467010C9467010C94670160
:100080000C9467010C9467010C9467010C94670150
:100090000C9467010C9467010C9467010C94670140
:1000A0000C9467010C9467010C9467010C94670130
:1000B0000C9467010C9467010C9467010C94670120
:1000C0000C9467010C9467010C9467010C94670110
:1000D0000C9467010C9467010C9467010C94670100
:1000E0000C9467010C9455020C9454030C94FC017D
:1000F0000C9487020C9474020C9459020C948202A2
:100100000C94290A0C9451020C942A030C94530366
:100110000C9462020C946C020C9466020C948C0297
:100120000C945C020C947A020C947E020C944D02A6
:100130000C9488020C94B4040C9470020C94EA029F
:100140000C9447020C94B9020000210024002700FF
:100150002A002D00300033000101000004010701D6
:100160000A01000020002300260029002C002F0097
:1001700032000001000003010601090100000A0B22
:1001800002090C0D0E080703040100000000000026
:10019000000000000000000000000000000000005F
:1001A000000000000000000012111000000000001C
:1001B000000000000000000000000000000000003F
:1001C000000001021020200808102040102040806C
:1001D000020102010804020101020408102040800B
:1001E0008040201008040201800402018040201099
:1001F00008040201080402010102040810204080E2
:100200000102040810204080000022002500280080
:100210002B002E003100340002010000050108010E
:100220000B0105050505070508080808020202027A
:100230000A0A080804040404010101010101010182
:100240000303030303030303040707070C0C0C0C4D
:100250000C0C0C0C02020202060606060606060636
:100260000B0B0B0B0B0B0B0B0200290A11241FBEEF
:10027000CFEFD1E2DEBFCDBF00E00CBF12E0A0E0C7
:10028000B2E0E2E2F9E100E00BBF02C007900D929C
:10029000A235B107D9F723E0A2E5B2E001C01D9273
:1002A000A430B207E1F711E0C6E3D1E000E006C0F8
:1002B00021970109802FFE010E94870CC533D107C9
:1002C00080E00807A9F70E94A3050C948F0C0C94FA
:1002D000000096E0899FD0011124A358BD4F90964D
:1002E0007C936E935F9791E091969C939197E091A8
:1002F000EA02F091EB029091E902992339F03097EC
:1003000051F0811108C0809199021994309719F029
:100310005C968C91FACF0895CF92DF92EF92FF9284
:100320000F931F9396E0899FF0011124E358FD4F2E
:1003300011A2278D30A12130310551F178F0223002
:10034000310509F451C02330310509F452C01F9121
:100350000F91FF90EF90DF90CF9008956623B9F34F
:1003600061E070E00E9469012FB7F89480917902F2
:1003700090917A02A0917B02B0917C022FBF809372
:10038000D5029093D602A093D702B093D802DFCFC4
:100390009FB7F894C0907902D0907A02E0907B02E7
:1003A000F0907C029FBF0091D5021091D60220915F
:1003B000D7023091D802C01AD10AE20AF30A00919A
:1003C000E7021091E80230E020E00C151D052E0533
:1003D0003F0550F462E070E01F910F91FF90EF90A5
:1003E000DF90CF900C9469016111B1CF63E070E0B0
:1003F000F3CF70E060E0F0CFAF92BF92CF92DF9288
:10040000EF92FF920F931F93CF93DF936C017B01C9
:100410008B01040F151FEB015E01AE18BF08C0175A
:10042000D10759F06991D601ED91FC910190F081CD
:10043000E02DC6011995892B79F7C501DF91CF9180
:100440001F910F91FF90EF90DF90CF90BF90AF90F2
:1004500008958150823108F05AC0E82FF0E08827D3
:10046000EB5CFD4F8F4F0C94870C550259024702ED
:100470004D02510287025C02620266026C02700247
:1004800074027A027E028702820288028C028091C4
:1004900080008F77809380000895809180008F7D09
:1004A000F9CF80918000877FF5CF84B58F7784BDA9
:1004B000089584B58F7DFBCF8091B0008F778093B6
:1004C000B00008958091B0008F7DF9CF80919000A9
:1004D0008F77809390000895809190008F7DF9CF61
:1004E00080919000877FF5CF8091A0008F778093D7
:1004F000A00008958091A0008F7DF9CF8091A00089
:10050000877FF5CF809120018F7780932001089518
:10051000809120018F7DF9CF80912001877FF5CFD9
:10052000CF93DF93282F30E0F901E458FE4F8491F8
:10053000F901EE53FE4FD491F901EE5DFD4FC491E8
:10054000CC23A1F081110E942902EC2FF0E0EE0FE4
:10055000FF1FEE59FE4FA591B491EC91ED2381E080
:1005600090E009F480E0DF91CF91089580E090E081
:10057000FACF862F0C9490021F93CF93DF93282FEE
:1005800030E0F901E458FE4F8491F901EE53FE4F3B
:10059000D491F901EE5DFD4FC491CC23A9F0162F43
:1005A00081110E942902EC2FF0E0EE0FFF1FE85F9F
:1005B000FD4FA591B4918FB7F894EC91111108C03B
:1005C000D095DE23DC938FBFDF91CF911F910895EB
:1005D000DE2BF8CF862F642F0C94BC02CF93DF93D1
:1005E00090E0FC01EE53FE4F24918E5D9D4FFC0187
:1005F00084918823C9F090E0880F991FFC01E85B83
:10060000FE4FA591B491FC01E85FFD4FC591D491D7
:1006100061110DC09FB7F8948C91209582238C9323
:100620008881282328839FBFDF91CF91089562306E
:1006300051F49FB7F8943C91822F809583238C933B
:10064000E8812E2BEFCF8FB7F894EC912E2B2C93C3
:100650008FBFEACF862F642F0C94EE023FB7F89439
:100660008091530290915402A0915502B09156028C
:1006700026B5A89B05C02F3F19F00196A11DB11DFD
:100680003FBFBA2FA92F982F8827BC01CD01620F39
:10069000711D811D911D42E0660F771F881F991FF4
:1006A0004A95D1F70895089590E080E00895FC01FF
:1006B00001900020E9F73197AF01481B590BBC01AD
:1006C0008CEE92E00C94FC01CF93DF93EC0160E0A0
:1006D0008E810E94BC0261E08E810E94BC0260E0BB
:1006E0008E810E94BC028BE891E00197F1F7DF91C7
:1006F000CF910895CF92DF92EF92FF920F931F93C5
:10070000CF93DF936C017C0187E0E80EF11CD0E011
:10071000C0E0062F10E0B8010C2E02C07595679559
:100720000A94E2F76170F70181917F010E94BC0297
:100730002196C430D10579F7C601DF91CF911F9181
:100740000F91FF90EF90DF90CF900C946403CF92C5
:10075000DF92EF92FF920F931F93CF93DF93EC0101
:10076000F62E642F8C810E94BC028D818F3F19F080
:1007700060E00E94BC020F2D10E08F8584FF25C031
:100780006E0187E0C80ED11CF12CE12CB8010E2CB3
:1007900002C0759567950A94E2F76170F601819140
:1007A0006F010E94BC02FFEFEF1AFF0A88E0E81613
:1007B000F10461F7CE01DF91CF911F910F91FF906E
:1007C000EF90DF90CF900C946403B80184E07595AE
:1007D00067958A95E1F7CE010E947A036F2DCE01CD
:1007E000DF91CF911F910F91FF90EF90DF90CF900D
:1007F0000C947A0340E0682F8CEE92E00C94A703EF
:10080000CF93DF93823029F49091FB02986090930C
:10081000FB028093FF021092000380E480930103A7
:1008200080E18093020380E58093030361E080917F
:10083000F0020E94EE028091F1028F3F19F061E018
:100840000E94EE0261E08091F2020E94EE02CCEE84
:10085000D2E09E012C5E32408091FB0284FD0BC0F1
:1008600084E090E021962817390744F461E08E81F6
:100870000E94EE02EECF88E090E0F4CF8BE39DE0A3
:100880000197F1F760E08091F0020E94BC0260E005
:100890008091F2020E94BC028091F1028F3F19F018
:1008A00060E00E94BC028091FB0284FD39C063E0DD
:1008B0008CEE92E00E947A03CBE4D6E4CE0101975D
:1008C000F1F763E08CEE92E00E947A032197F1F752
:1008D00063E08CEE92E00E947A0383E592E0019758
:1008E000F1F762E08CEE92E00E947A038091FB02C5
:1008F00080620E94FA0384E08093FC028CE00E94F4
:10090000FA0381E00E94FA038BE39FE10197F1F77C
:1009100082E08093FD0286E0DF91CF910C94FA0390
:1009200080620E94FA038BE496E40197F1F78091CC
:10093000FB0280620E94FA0383E592E00197F1F7DF
:100940008091FB0280620E94FA03D0CFE091FF0207
:10095000E23040F4E150F0E0E451FD4F84898068DA
:100960000C94FA03E1E0F7CF41E00E94A70381E095
:1009700090E008951F920F920FB60F9211240BB6BC
:100980000F922F933F934F935F936F937F938F9328
:100990009F93AF93BF93EF93FF9380916D029091DC
:1009A0006E02A0916F02B0917002892B8A2B8B2B63
:1009B000E1F190915C02E0915D02F0915E02808134
:1009C0008927808380916D0290916E02A0916F02C1
:1009D000B0917002181619061A061B069CF4809135
:1009E0006D0290916E02A0916F02B091700201971A
:1009F000A109B10980936D0290936E02A0936F02DA
:100A0000B0937002FF91EF91BF91AF919F918F9141
:100A10007F916F915F914F913F912F910F900BBEFE
:100A20000F900FBE0F901F90189580911802E8E666
:100A3000F2E0E4919FEF90931802E230E9F040F485
:100A4000EE2389F0E13091F060E00E94BC02DACF41
:100A5000E43049F110F1E530B9F7909173009D7FD2
:100A600090937300F1CF10926E00EECF90916F00D3
:100A70009D7F90936F00E8CF909170009D7F909341
:100A8000700091E09093B0009091B100987F9460D5
:100A90009093B1001092B300D7CF909171009D7FD9
:100AA00090937100D1CF909172009D7F90937200CE
:100AB000CBCF1F920F920FB60F9211242F933F931B
:100AC0008F939F93AF93BF938091790290917A0215
:100AD000A0917B02B0917C023091520223E0230F5F
:100AE0002D3758F50196A11DB11D20935202809318
:100AF000790290937A02A0937B02B0937C0280915A
:100B0000530290915402A0915502B0915602019661
:100B1000A11DB11D8093530290935402A0935502DE
:100B2000B0935602BF91AF919F918F913F912F91BA
:100B30000F900FBE0F901F90189526E8230F029676
:100B4000A11DB11DD2CFCF93DF93CDB7DEB7A19753
:100B50000FB6F894DEBF0FBECDBF789484B5826027
:100B600084BD84B5816084BD85B5826085BD85B551
:100B7000816085BD80916E00816080936E001092CF
:100B8000810080918100826080938100809181004A
:100B900081608093810080918000816080938000DB
:100BA0008091B10084608093B1008091B000816039
:100BB0008093B00080919100826080939100809139
:100BC000910081608093910080919000816080937A
:100BD00090008091A10082608093A1008091A1008B
:100BE00081608093A1008091A00081608093A0002B
:100BF0008091210182608093210180912101816097
:100C00008093210180912001816080932001809157
:100C10007A00846080937A0080917A008260809369
:100C20007A0080917A00816080937A0080917A00C6
:100C3000806880937A001092C10060E086E10E9493
:100C4000EE0261E087E10E94EE0261E08FE10E9426
:100C5000EE0260E08EE10E94EE0282E00E9400045B
:100C60008FE292E00E94570380E492E00E945703D3
:100C7000F1E44F2E512C612C712C81E08093E9021C
:100C80008FB7F8944091790250917A0260917B027B
:100C900070917C028FBF8091D9029091DA02A0916D
:100CA000DB02B091DC02481B590B6A0B7B0B809175
:100CB000E5029091E602B0E0A0E084179507A60750
:100CC000B70708F03DC110E08091E302181760F407
:100CD000E091DF02F091E002E10FF11D62E080811E
:100CE0000E94EE021F5FF0CF312C8091E402381693
:100CF00008F063C0C32CD12CE091E102F091E20234
:100D0000EC0DFD1D61E080810E94EE02E091E102A8
:100D1000F091E202EC0DFD1D60E080810E94BC02BA
:100D200081E090E0A0E0B0E0032C04C0880F991FA0
:100D3000AA1FBB1F0A94D2F74C015C01A094B09487
:100D4000212C8091E302281608F5022D10E0E09195
:100D5000DF02F091E002E00FF11F80810E9490021B
:100D60000C5F1F4F000F111FF801E358FD4F892B37
:100D700041F48081918188299929918380832394EA
:100D8000E0CF808191818A219B21F7CFE091E10220
:100D9000F091E202EC0DFD1D61E080810E94BC0239
:100DA0008091E1029091E202C80ED91E60E0F60146
:100DB00080810E94EE02339498CF0DE712E0680123
:100DC000F601878D90A1892B31F4148E8FEF9FEF60
:100DD000968F858F11A296E0C90ED11CE9EBCE1635
:100DE000E2E0DE0669F7B12C8091E302B81608F064
:100DF00053C0A12C8B2C912C880C991CC4018B57AF
:100E00009D4F4C012091E402A21608F043C0F4016A
:100E1000608171810A2C02C0769567950A94E2F789
:100E2000B29E900111242A0D311DEDE7F2E080E021
:100E3000458D568D2417350709F49CC28F5F369671
:100E40008A30B1F760FF24C0EDE7F2E090E080E087
:100E5000448D411118C0E091DD02F091DE02E20FF5
:100E6000F31F408156E0589FF001599FF00D112467
:100E7000E358FD4F448F368F258F10A2178E61E007
:100E80000E948C0105C0019636968A30910501F7C3
:100E9000A394B8CFB394A8CF80E0F80191A19111A9
:100EA000892F0A5F1F4FC016D106B9F79FB7F89474
:100EB0004091790250917A0260917B0270917C029C
:100EC0009FBF4093D9025093DA026093DB02709384
:100ED000DC028823A9F100915702109158028091F9
:100EE0009E02882369F180919C0290919D02019756
:100EF00039F5D0909902D11026C080915702909177
:100F00005802049709F044C2998180911302981302
:100F100010C0909114028A8198130BC09B8180911C
:100F20001502981306C09C8180911602981709F447
:100F300023C261E088E00E94BC0260E089E022C236
:100F40001092E902DACF0115110541F460E089E061
:100F50000E94BC0260E088E00E94BC02F3E2DF1263
:100F60000DC0109258021092570260E089E00E9472
:100F7000BC0260E088E00E94BC02BFCFE1E0F0E08C
:100F8000EC0FFD1FE00FF11FD0820F5F1F4F10937A
:100F9000580200935702B1CF8F3F09F069C18FE12A
:100FA00080931802E8E6F2E01491812F1F3F09F4C4
:100FB0005FC1123009F46BC060F4112381F111306C
:100FC00009F446C087FD54C161E08FE10E94EE0242
:100FD00027C2143009F49EC008F47CC0153091F784
:100FE000109220011092210180912101886080934C
:100FF000210180912101816080932101E1E4F2E0EF
:101000008491E82FF0E0EE0FFF1FE85FFD4F859120
:101010009491E1EEF1E0E491E0935902FAC114BC3D
:1010200015BC84B5826084BD85B5816085BDE1E471
:10103000F2E08491E82FF0E0EE0FFF1FE85FFD4F34
:1010400085919491E1EEF1E0E491E0936002E1C1D9
:1010500010928000109281008091810088608093BE
:10106000810080918100816080938100E1E4F2E061
:101070008491E82FF0E0EE0FFF1FE85FFD4F8591B0
:101080009491E1EEF1E0E491E0935F02C2C110922D
:10109000B0001092B1008091B00082608093B000E7
:1010A0008091B10081608093B100E1E4F2E084912D
:1010B000E82FF0E0EE0FFF1FE85FFD4F8591949160
:1010C00090935E0280935D02E1EEF1E0E491E093A3
:1010D0005C029FC11092900010929100809191004B
:1010E000886080939100809191008160809391004D
:1010F000E1E4F2E08491E82FF0E0EE0FFF1FE85FFB
:10110000FD4F85919491E1EEF1E0E491E0935B0273
:1011100013E07FC11092A0001092A1008091A10065
:1011200088608093A1008091A10081608093A100DC
:10113000E1E4F2E08491E82FF0E0EE0FFF1FE85FBA
:10114000FD4F85919491E1EEF1E0E491E0935A0234
:1011500060C185B5887F856085BD87E787BD409282
:1011600075025092760260927702709278028091B6
:101170006E00826080936E007BC01130D1F480914C
:101180008100887F83608093810082E897E090935C
:10119000890080938800409271025092720260929E
:1011A00073027092740280916F00826080936F006E
:1011B0005FC01330D1F480919100887F8360809369
:1011C0009100E2E8F7E0F0939900E09398004092F4
:1011D000690250926A0260926B0270926C02809176
:1011E000710082608093710043C01430D1F480910B
:1011F000A100887F83608093A10082E897E09093AC
:10120000A9008093A8004092650250926602609205
:10121000670270926802809172008260809372000F
:1012200027C01530D1F480912101887F836080939D
:101230002101E2E8F7E0F0932901E09328014092D0
:101240006102509262026092630270926402809125
:1012500073008260809373000BC0123009F483C066
:101260000CF076C0112309F47CC0113009F48DCF45
:1012700080917B00877F80937B0087E480937C0054
:1012800080917A00806480937A0080917A0086FD54
:10129000FCCF8091780060917900762F682F072E1F
:1012A000000C880B990B0E94430B20E030E04AEFC2
:1012B0005EE30E94D40B4B015C0120E030E0A90109
:1012C0000E94CF0B20E030E040E05FE387FD4DC09F
:1012D000C501B4010E949F0A0E940B0B8B010E9462
:1012E000A60483E492E00F31110534F588E492E01E
:1012F000043111050CF19801110F440B550B19A283
:101300006E01F1E2CF0ED11CCA01B9012AE030E032
:1013100040E050E00E94650C605DF60162936F0151
:10132000211531054105510579F7309719F0CF01A5
:101330000E9457038CE492E00E9457030E94A60487
:1013400080E090E0892B09F498CC0E94000095CCB5
:10135000143009F452CF0CF434CF153009F088CF93
:1013600068CF82E8FBCE82E864C0C501B4010E9468
:101370009E0AB2CF617084CD61E089E00E94BC0218
:1013800060E088E00E94BC0210925802109257025E
:1013900086E10E949002019761F561E087E10E9479
:1013A000BC020E942E036B017C0168EC862E912CFE
:1013B000A12CB12C0E942E036C197D098E099F0966
:1013C000683E734081059105A8F321E0821A9108D7
:1013D000A108B10858EEC50E53E0D51EE11CF11C62
:1013E00081149104A104B10429F760E087E10E940F
:1013F000BC028EE10E949002019709F039CF8091E2
:1014000018028F3109F0C8CDE8E6F2E0149117FD1B
:101410002FCF61E08FE10E94EE02112309F499CEF3
:10142000123009F0AACE8091B10087608093B1009C
:1014300087E78093B30040926D0250926E026092F3
:101440006F027092700280917000826080937000D1
:101450000FCF10927F02109283021092820210929C
:10146000840289E292E090937E0280937D02E9E912
:10147000F2E01082148213821582369682E0E53DF6
:10148000F807B9F783E092E09093E0028093DF02DF
:1014900080E092E09093E2028093E10294E09093E6
:1014A000E30283E08093E40227E032E03093DE023F
:1014B0002093DD022AE030E03093E6022093E5023B
:1014C00024EF31E03093E8022093E7021092EB0220
:1014D0001092EA021092D9021092DA021092DB0204
:1014E0001092DC021092E9021092EF021092EE02CA
:1014F0002DE132E03093ED022093EC022CE02093BA
:10150000F0022FEF2093F1022BE02093F20225E06E
:101510002093F3029093F4028093F50282E080938B
:10152000F6021092F7021092F8021092F90210924D
:10153000FA021092FB0281E00C9400045058BB2781
:10154000AA270E94B60A0C94950B0E94870B38F0CC
:101550000E948E0B20F039F49F3F19F426F40C946E
:10156000840B0EF4E095E7FB0C947E0BE92F0E94B0
:10157000A60B58F3BA17620773078407950720F084
:1015800079F4A6F50C94C80B0EF4E0950B2EBA2F47
:10159000A02D0B01B90190010C01CA01A001112479
:1015A000FF27591B99F0593F50F4503E68F11A1625
:1015B000F040A22F232F342F4427585FF3CF4695B6
:1015C00037952795A795F0405395C9F77EF41F16D8
:1015D000BA0B620B730B840BBAF09150A1F0FF0FA2
:1015E000BB1F661F771F881FC2F70EC0BA0F621F8E
:1015F000731F841F48F4879577956795B795F7957E
:101600009E3F08F0B0CF9395880F08F09927EE0F12
:101610009795879508950E94120B6894B1110C94C8
:10162000C90B08950E94AE0B88F09F5798F0B92F10
:101630009927B751B0F0E1F0660F771F881F991F07
:101640001AF0BA95C9F714C0B13091F00E94C80BD6
:10165000B1E008950C94C80B672F782F8827B85FE6
:1016600039F0B93FCCF3869577956795B395D9F75F
:101670003EF490958095709561957F4F8F4F9F4F69
:101680000895E89409C097FB3EF490958095709575
:1016900061957F4F8F4F9F4F9923A9F0F92F96E9BE
:1016A000BB279395F695879577956795B795F11133
:1016B000F8CFFAF4BB0F11F460FF1BC06F5F7F4FD0
:1016C0008F4F9F4F16C0882311F096E911C07723E2
:1016D00021F09EE8872F762F05C0662371F096E8EB
:1016E000862F70E060E02AF09A95660F771F881FBA
:1016F000DAF7880F9695879597F9089597F99F6778
:1017000080E870E060E008959FEF80EC0895002489
:101710000A941616170618060906089500240A9456
:1017200012161306140605060895092E0394000CDC
:1017300011F4882352F0BB0F40F4BF2B11F460FF6B
:1017400004C06F5F7F4F8F4F9F4F089557FD905894
:10175000440F551F59F05F3F71F04795880F97FB75
:10176000991F61F09F3F79F087950895121613062F
:101770001406551FF2CF4695F1DF08C0161617065E
:101780001806991FF1CF8695710561050894089593
:10179000E894BB2766277727CB0197F908950E9425
:1017A000410C08F48FEF08950E94E70B0C94950B01
:1017B0000E94870B38F00E948E0B20F0952311F0C9
:1017C0000C947E0B0C94840B11240C94C90B0E9476
:1017D000A60B70F3959FC1F3950F50E0551F629FC4
:1017E000F001729FBB27F00DB11D639FAA27F00D7A
:1017F000B11DAA1F649F6627B00DA11D661F829FA1
:101800002227B00DA11D621F739FB00DA11D621F85
:10181000839FA00D611D221F749F3327A00D611DA2
:10182000231F849F600D211D822F762F6A2F112484
:101830009F5750409AF0F1F088234AF0EE0FFF1FB7
:10184000BB1F661F771F881F91505040A9F79E3F0E
:10185000510580F00C947E0B0C94C90B5F3FE4F3B0
:10186000983ED4F3869577956795B795F795E79564
:101870009F5FC1F7FE2B880F911D9695879597F96D
:101880000895990F0008550FAA0BE0E8FEEF161611
:101890001706E807F907C0F012161306E407F50764
:1018A00098F0621B730B840B950B39F40A2661F0D8
:1018B000232B242B252B21F408950A2609F4A1407B
:1018C000A6958FEF811D811D0895A1E21A2EAA1BF6
:1018D000BB1BFD010DC0AA1FBB1FEE1FFF1FA217E0
:1018E000B307E407F50720F0A21BB30BE40BF50BDD
:1018F000661F771F881F991F1A9469F76095709566
:10190000809590959B01AC01BD01CF010895EE0F2C
:10191000FF1F881F8BBF0790F691E02D1994F89454
:02192000FFCFF7
:101922001213140E0F101131323334353637383961
:101932002A30233132333400FF00000000B404FCAB
:101942000154035303000000002A03EA02B90254BF
:10195200656D70657261747572652069733A2000F5
:101962000D0A0048696768004C6F7700202020202C
:02197200200053
:00000001FF
