:100000000C9436010C9467010C9467010C94670101
:100010000C9467010C9467010C9467010C946701C0
:100020000C9467010C9467010C9467010C946701B0
:100030000C9467010C94AC040C9467010C94670158
:100040000C9467010C9467010C9467010C94670190
:100050000C9467010C9467010C9467010C944B0598
:100060000C9467010C9467010C9467010C94670170
:100070000C9467010C9467010C9467010C94670160
:100080000C9467010C9467010C9467010C94670150
:100090000C9467010C9467010C9467010C94670140
:1000A0000C9467010C9467010C9467010C94670130
:1000B0000C9467010C9467010C9467010C94670120
:1000C0000C9467010C9467010C9467010C94670110
:1000D0000C9467010C9467010C9467010C94670100
:1000E0000C9467010C948C020C9447020C945902F6
:1000F0000C94B9020C9474020C9454030C94EA020C
:100100000C9462020C946C020C9482020C947002A7
:100110000C9488020C9453030C944D020C94A60486
:100120000C941F0A0C9455020C9487020C945102F3
:100130000C94FC010C947A020C945C020C942A033B
:100140000C9466020C947E0200002100240027001B
:100150002A002D00300033000101000004010701D6
:100160000A01000020002300260029002C002F0097
:1001700032000001000003010601090100000A0B22
:1001800002090C0D0E080703040100000000000026
:10019000000000000000000000000000000000005F
:1001A000000000000000000012111000000000001C
:1001B000000000000000000000000000000000003F
:1001C000000001021020200808102040102040806C
:1001D000020102010804020101020408102040800B
:1001E0008040201008040201800402018040201099
:1001F00008040201080402010102040810204080E2
:100200000102040810204080000022002500280080
:100210002B002E003100340002010000050108010E
:100220000B0105050505070508080808020202027A
:100230000A0A080804040404010101010101010182
:100240000303030303030303040707070C0C0C0C4D
:100250000C0C0C0C02020202060606060606060636
:100260000B0B0B0B0B0B0B0B02001F0A11241FBEF9
:10027000CFEFD1E2DEBFCDBF00E00CBF12E0A0E0C7
:10028000B2E0E2EEF7E100E00BBF02C007900D9292
:10029000A434B107D9F722E0A4E4B2E001C01D9272
:1002A000AC3FB207E1F711E0C6E3D1E000E006C0E1
:1002B00021970109802FFE010E94E70BC533D1076A
:1002C00080E00807A9F70E9495050C94EF0B0C94A9
:1002D000000096E0899FD0011124AB58BD4F909645
:1002E0007C936E935F9791E091969C939197E091A8
:1002F000E202F091E3029091E102992339F0309704
:1003000051F0811108C0809191021994309719F031
:100310005C968C91FACF0895CF92DF92EF92FF9284
:100320000F931F9396E0899FF0011124EB58FD4F26
:1003300011A2278D30A12130310551F178F0223002
:10034000310509F451C02330310509F452C01F9121
:100350000F91FF90EF90DF90CF9008956623B9F34F
:1003600061E070E00E9469012FB7F89480917102FA
:1003700090917202A0917302B09174022FBF80938A
:10038000CD029093CE02A093CF02B093D002DFCFE4
:100390009FB7F894C0907102D0907202E0907302FF
:1003A000F09074029FBF0091CD021091CE02209177
:1003B000CF023091D002C01AD10AE20AF30A0091AA
:1003C000DF021091E00230E020E00C151D052E0543
:1003D0003F0550F462E070E01F910F91FF90EF90A5
:1003E000DF90CF900C9469016111B1CF63E070E0B0
:1003F000F3CF70E060E0F0CFAF92BF92CF92DF9288
:10040000EF92FF920F931F93CF93DF936C017B01C9
:100410008B01040F151FEB015E01AE18BF08C0175A
:10042000D10759F06991D601ED91FC910190F081CD
:10043000E02DC6011995892B79F7C501DF91CF9180
:100440001F910F91FF90EF90DF90CF90BF90AF90F2
:1004500008958150823108F05AC0E82FF0E08827D3
:10046000EB5CFD4F8F4F0C94E70B5502590247028E
:100470004D02510287025C02620266026C02700247
:1004800074027A027E028702820288028C028091C4
:1004900080008F77809380000895809180008F7D09
:1004A000F9CF80918000877FF5CF84B58F7784BDA9
:1004B000089584B58F7DFBCF8091B0008F778093B6
:1004C000B00008958091B0008F7DF9CF80919000A9
:1004D0008F77809390000895809190008F7DF9CF61
:1004E00080919000877FF5CF8091A0008F778093D7
:1004F000A00008958091A0008F7DF9CF8091A00089
:10050000877FF5CF809120018F7780932001089518
:10051000809120018F7DF9CF80912001877FF5CFD9
:10052000CF93DF93282F30E0F901E458FE4F8491F8
:10053000F901EE53FE4FD491F901EE5DFD4FC491E8
:10054000CC23A1F081110E942902EC2FF0E0EE0FE4
:10055000FF1FEE59FE4FA591B491EC91ED2381E080
:1005600090E009F480E0DF91CF91089580E090E081
:10057000FACF862F0C9490021F93CF93DF93282FEE
:1005800030E0F901E458FE4F8491F901EE53FE4F3B
:10059000D491F901EE5DFD4FC491CC23A9F0162F43
:1005A00081110E942902EC2FF0E0EE0FFF1FE85F9F
:1005B000FD4FA591B4918FB7F894EC91111108C03B
:1005C000D095DE23DC938FBFDF91CF911F910895EB
:1005D000DE2BF8CF862F642F0C94BC02CF93DF93D1
:1005E00090E0FC01EE53FE4F24918E5D9D4FFC0187
:1005F00084918823C9F090E0880F991FFC01E85B83
:10060000FE4FA591B491FC01E85FFD4FC591D491D7
:1006100061110DC09FB7F8948C91209582238C9323
:100620008881282328839FBFDF91CF91089562306E
:1006300051F49FB7F8943C91822F809583238C933B
:10064000E8812E2BEFCF8FB7F894EC912E2B2C93C3
:100650008FBFEACF862F642F0C94EE023FB7F89439
:100660008091450290914602A0914702B0914802C4
:1006700026B5A89B05C02F3F19F00196A11DB11DFD
:100680003FBFBA2FA92F982F8827BC01CD01620F39
:10069000711D811D911D42E0660F771F881F991FF4
:1006A0004A95D1F70895089590E080E00895FC01FF
:1006B00001900020E9F73197AF01481B590BBC01AD
:1006C00084EE92E00C94FC01CF93DF93EC0160E0A8
:1006D0008E810E94BC0261E08E810E94BC0260E0BB
:1006E0008E810E94BC028BE891E00197F1F7DF91C7
:1006F000CF910895CF92DF92EF92FF920F931F93C5
:10070000CF93DF936C017C0187E0E80EF11CD0E011
:10071000C0E0062F10E0B8010C2E02C07595679559
:100720000A94E2F76170F70181917F010E94BC0297
:100730002196C430D10579F7C601DF91CF911F9181
:100740000F91FF90EF90DF90CF900C946403CF92C5
:10075000DF92EF92FF920F931F93CF93DF93EC0101
:10076000F62E642F8C810E94BC028D818F3F19F080
:1007700060E00E94BC020F2D10E08F8584FF25C031
:100780006E0187E0C80ED11CF12CE12CB8010E2CB3
:1007900002C0759567950A94E2F76170F601819140
:1007A0006F010E94BC02FFEFEF1AFF0A88E0E81613
:1007B000F10461F7CE01DF91CF911F910F91FF906E
:1007C000EF90DF90CF900C946403B80184E07595AE
:1007D00067958A95E1F7CE010E947A036F2DCE01CD
:1007E000DF91CF911F910F91FF90EF90DF90CF900D
:1007F0000C947A0340E0682F84EE92E00C94A703F7
:10080000CF93DF93823029F49091F3029860909314
:10081000F3028093F7021092F80280E48093F902C9
:1008200080E18093FA0280E58093FB0261E0809191
:10083000E8020E94EE028091E9028F3F19F061E028
:100840000E94EE0261E08091EA020E94EE02C4EE94
:10085000D2E09E01245E32408091F30284FD0BC001
:1008600084E090E021962817390744F461E08E81F6
:100870000E94EE02EECF88E090E0F4CF8BE39DE0A3
:100880000197F1F760E08091E8020E94BC0260E00D
:100890008091EA020E94BC028091E9028F3F19F028
:1008A00060E00E94BC028091F30284FD39C063E0E5
:1008B00084EE92E00E947A03CBE4D6E4CE01019765
:1008C000F1F763E084EE92E00E947A032197F1F75A
:1008D00063E084EE92E00E947A0383E592E0019760
:1008E000F1F762E084EE92E00E947A038091F302D5
:1008F00080620E94FA0384E08093F4028CE00E94FC
:10090000FA0381E00E94FA038BE39FE10197F1F77C
:1009100082E08093F50286E0DF91CF910C94FA0398
:1009200080620E94FA038BE496E40197F1F78091CC
:10093000F30280620E94FA0383E592E00197F1F7E7
:100940008091F30280620E94FA03D0CF41E00E94BE
:10095000A70381E090E008951F920F920FB60F92C7
:1009600011240BB60F922F933F934F935F936F9386
:100970007F938F939F93AF93BF93EF93FF93809158
:10098000630290916402A0916502B0916602892B86
:100990008A2B8B2BE1F190915202E0915302F0915E
:1009A0005402808189278083809163029091640240
:1009B000A0916502B0916602181619061A061B0668
:1009C0009CF48091630290916402A0916502B091C1
:1009D00066020197A109B1098093630290936402B2
:1009E000A0936502B0936602FF91EF91BF91AF9122
:1009F0009F918F917F916F915F914F913F912F9137
:100A00000F900BBE0F900FBE0F901F901895809106
:100A10001802E8E6F2E0E4919FEF90931802E230CA
:100A2000E9F040F4EE2389F0E13091F060E00E94BB
:100A3000BC02DACFE43049F110F1E530B9F790911A
:100A400073009D7F90937300F1CF10926E00EECFF4
:100A500090916F009D7F90936F00E8CF9091700010
:100A60009D7F9093700091E09093B0009091B100C1
:100A7000987F94609093B1001092B300D7CF90917B
:100A800071009D7F90937100D1CF909172009D7FF6
:100A900090937200CBCF1F920F920FB60F9211243A
:100AA0002F933F938F939F93AF93BF938091710246
:100AB00090917202A0917302B0917402309144023D
:100AC00023E0230F2D3758F50196A11DB11D20936A
:100AD00044028093710290937202A0937302B093C8
:100AE00074028091450290914602A0914702B09114
:100AF00048020196A11DB11D8093450290934602C4
:100B0000A0934702B0934802BF91AF919F918F91FC
:100B10003F912F910F900FBE0F901F90189526E8D0
:100B2000230F0296A11DB11DD2CFCF93DF93CDB776
:100B3000DEB7A1970FB6F894DEBF0FBECDBF789495
:100B400084B5826084BD84B5816084BD85B58260D2
:100B500085BD85B5816085BD80916E008160809383
:100B60006E001092810080918100826080938100EC
:100B700080918100816080938100809180008160FC
:100B8000809380008091B10084608093B100809157
:100B9000B00081608093B00080919100826080936A
:100BA00091008091910081608093910080919000EC
:100BB0008160809390008091A10082608093A10069
:100BC0008091A10081608093A1008091A00081604C
:100BD0008093A00080912101826080932101809107
:100BE00021018160809321018091200181608093A7
:100BF000200180917A00846080937A0080917A004D
:100C0000826080937A0080917A00816080937A007C
:100C100080917A00806880937A001092C10060E031
:100C200086E10E94EE0261E087E10E94EE0261E04F
:100C30008FE10E94EE0260E08EE10E94EE0282E00F
:100C40000E9400048FE292E00E94570380E492E049
:100C50000E945703F2E82F2EF7E03F2EA1E44A2E20
:100C6000512C612C712C81E08093E1028FB7F894B4
:100C700040917102509172026091730270917402FE
:100C80008FBF8091D1029091D202A091D302B091F6
:100C9000D402481B590B6A0B7B0B8091DD029091AB
:100CA000DE02B0E0A0E084179507A607B70708F0BA
:100CB00037C110E08091DB02181760F4E091D70291
:100CC000F091D802E10FF11D62E080810E94EE02F6
:100CD0001F5FF0CF912C8091DC02981608F063C062
:100CE000E92CF12CE091D902F091DA02EE0DFF1D12
:100CF00061E080810E94EE02E091D902F091DA0277
:100D0000EE0DFF1D60E080810E94BC0281E090E05A
:100D1000A0E0B0E0092C04C0880F991FAA1FBB1FD8
:100D20000A94D2F75C016C01C094D094812C80911C
:100D3000DB02881608F5082D10E0E091D702F0914B
:100D4000D802E00FF11F80810E9490020C5F1F4FBC
:100D5000000F111FF801EB58FD4F892B41F48081E2
:100D600091818A299B29918380838394E0CF80811C
:100D700091818C219D21F7CFE091D902F091DA0287
:100D8000EE0DFF1D61E080810E94BC028091D902BE
:100D90009091DA02E80EF91E60E0F70180810E946E
:100DA000EE02939498CF05E712E0F801878D90A1A9
:100DB000892B31F4148E8FEF9FEF968F858F11A2C0
:100DC000369692E0E13BF90789F7F12C8091DB023E
:100DD000F81608F053C0E12CCF2CD12CCC0CDD1C24
:100DE000F601E358FD4F6F012091DC02E21608F096
:100DF00043C0F601608171810E2C02C07695679523
:100E00000A94E2F7F29E900111242E0D311DE5E7C0
:100E1000F2E080E0458D568D2417350709F4A0C215
:100E20008F5F36968A30B1F760FF24C0E5E7F2E0C5
:100E300090E080E0448D411118C0E091D502F0911E
:100E4000D602E20FF31F408156E0589FF001599FF0
:100E5000F00D1124EB58FD4F448F368F258F10A2D3
:100E6000178E61E00E948C0105C0019636968A308B
:100E7000910501F7E394B8CFF394A8CF80E0F8018F
:100E800091A19111892F0A5F1F4FF2E0013B1F07CB
:100E9000B1F79FB7F894409171025091720260913E
:100EA0007302709174029FBF4093D1025093D2029B
:100EB0006093D3027093D402882391F180919602BB
:100EC000882371F18091940290919502813091056F
:100ED00039F520919102211126C080914B02909109
:100EE0004C02049709F04AC2909113028981981329
:100EF00010C09A818091140298130BC09091150232
:100F00008B81981306C09C8180911602981709F472
:100F100029C261E088E00E94BC0260E089E028C24A
:100F20001092E102DACF9093700280936F024091A9
:100F30004D0250914E02452B21F490934E02809326
:100F40004D0280914B0290914C02E1E0F0E0EC0FF9
:100F5000FD1FE80FF91F2083019690934C028093A8
:100F60004B028091490290914A02019690934A0265
:100F700080934902B2CF8F3F09F05BC18FE180932C
:100F80001802E8E6F2E01491812F1F3F09F451C1E5
:100F9000123009F468C060F4112379F1113009F4BA
:100FA00044C087FD46C161E08FE10E94EE022EC27F
:100FB000143009F499C008F478C0153091F71092F4
:100FC00020011092210180912101886080932101EC
:100FD00080912101816080932101E1E4F2E0E491BC
:100FE000F0E0EE0FFF1FE85FFD4F85919491E1EE79
:100FF000F1E0E491E0934F0202C214BC15BC84B549
:10100000826084BD85B5816085BDE1E4F2E0E49154
:10101000F0E0EE0FFF1FE85FFD4F85919491E1EE48
:10102000F1E0E491E0935602EAC110928000109240
:10103000810080918100886080938100809181008F
:10104000816080938100E1E4F2E0E491F0E0EE0F52
:10105000FF1FE85FFD4F85919491E1EEF1E0E4918F
:10106000E0935502CCC11092B0001092B100809173
:10107000B00082608093B0008091B1008160809365
:10108000B100E1E4F2E0E491F0E0EE0FFF1FE85F71
:10109000FD4F859194919093540280935302E1EE19
:1010A000F1E0E491E0935202AAC1109290001092F4
:1010B00091008091910088608093910080919100CF
:1010C000816080939100E1E4F2E0E491F0E0EE0FC2
:1010D000FF1FE85FFD4F85919491E1EEF1E0E4910F
:1010E000E093510213E08BC11092A0001092A10076
:1010F0008091A10088608093A1008091A10081600F
:101100008093A100E1E4F2E0E491F0E0EE0FFF1F34
:10111000E85FFD4F85919491E1EEF1E0E491E09379
:1011200050026DC185B5887F856085BD87E787BD25
:1011300040926B0250926C0260926D0270926E024D
:1011400080916E00826080936E0073C01130C1F494
:1011500080918100887F8360809381003092890034
:101160002092880040926702509268026092690261
:1011700070926A0280916F00826080936F0059C004
:101180001330C1F480919100887F83608093910037
:10119000309299002092980040925F025092600233
:1011A000609261027092620280917100826080930D
:1011B00071003FC01430C1F48091A100887F83602A
:1011C0008093A1003092A9002092A80040925B0277
:1011D00050925C0260925D0270925E028091720099
:1011E00082608093720025C01530C1F48091210186
:1011F000887F836080932101309229012092280109
:1012000040925702509258026092590270925A02CC
:10121000809173008260809373000BC0123009F4D8
:1012200083C00CF076C0112309F47CC0113009F49E
:1012300095CF80916F0290917002892B09F061C067
:1012400080917B00877F80937B0087E480937C0084
:1012500080917A00806480937A0080917A0086FD84
:10126000FCCF8091780060917900762F682F072E4F
:10127000000C880B990B0E94CC0A20E030E04AEF6A
:101280005EE30E94300B0E94940A6B01E091F7022A
:10129000E23008F04BC0E150F0E0EC51FD4F8489A2
:1012A00080680E94FA030D2C000CEE08FF08F7FE80
:1012B0003FC041E06DE284EE92E00E94A703222746
:1012C0003327A9012C193D094E095F0919A28E0186
:1012D0000F5D1F4FCA01B9012AE030E040E050E045
:1012E0000E94C50B605DF80162938F0121153105E5
:1012F0004105510579F70115110519F0C8010E9442
:10130000570380E090E0892B09F4ADCC0E940000E7
:10131000AACC143009F456CF0CF43ACF153009F0AA
:1013200088CF6ACF82E803CF82E879C0E1E0B4CF0A
:10133000A701960119A28E010F5D1F4FCA01B901C5
:101340002AE030E040E050E00E94C50B605DF8010B
:1013500062938F01211531054105510579F7CBCFF6
:10136000617080CD61E089E00E94BC0260E088E0AD
:101370000E94BC021092700210926F0286E10E94DD
:101380009002019761F561E087E10E94BC020E9432
:101390002E034B015C0168ECC62ED12CE12CF12C04
:1013A0000E942E03681979098A099B09683E7340D7
:1013B00081059105A8F321E0C21AD108E108F108DE
:1013C00058EE850E53E0951EA11CB11CC114D1042A
:1013D000E104F10429F760E087E10E94BC028EE19C
:1013E0000E949002019709F024CF809118028F315A
:1013F00009F0C1CDE8E6F2E0149117FD1ACF61E0E3
:101400008FE10E94EE02112309F48CCE123009F014
:101410009DCE8091B10087608093B10087E7809373
:10142000B30040926302509264026092650270922F
:10143000660280917000826080937000FACE1092F4
:10144000770210927B0210927A0210927C0289E25B
:1014500092E09093760280937502E1E9F2E01082C7
:10146000148213821582369682E0ED3CF807B9F7B4
:1014700083E092E09093D8028093D70280E092E0DC
:101480009093DA028093D90294E09093DB0283E098
:101490008093DC0227E032E03093D6022093D5021D
:1014A0002AE030E03093DE022093DD0224EF31E0C9
:1014B0003093E0022093DF021092E3021092E202E6
:1014C0001092D1021092D2021092D3021092D40242
:1014D0001092E1021092E7021092E6022DE132E052
:1014E0003093E5022093E4022CE02093E8022FEFF2
:1014F0002093E9022BE02093EA0225E02093EB02FF
:101500009093EC028093ED0282E08093EE021092C1
:10151000EF021092F0021092F1021092F202109279
:10152000F30281E00C9400040E949B0A6894B111BC
:101530000C942A0B08950E940F0B88F09F5798F087
:10154000B92F9927B751B0F0E1F0660F771F881FC8
:10155000991F1AF0BA95C9F714C0B13091F00E94E2
:10156000290BB1E008950C94290B672F782F882759
:10157000B85F39F0B93FCCF3869577956795B39509
:10158000D9F73EF490958095709561957F4F8F4F78
:101590009F4F0895E89409C097FB3EF4909580957D
:1015A000709561957F4F8F4F9F4F9923A9F0F92F29
:1015B00096E9BB279395F695879577956795B795A7
:1015C000F111F8CFFAF4BB0F11F460FF1BC06F5F8D
:1015D0007F4F8F4F9F4F16C0882311F096E911C09F
:1015E000772321F09EE8872F762F05C0662371F0C0
:1015F00096E8862F70E060E02AF09A95660F771FD4
:10160000881FDAF7880F9695879597F9089557FD03
:101610009058440F551F59F05F3F71F04795880F60
:1016200097FB991F61F09F3F79F0879508951216F7
:1016300013061406551FF2CF4695F1DF08C01616A3
:1016400017061806991FF1CF869571056105089454
:101650000895E894BB2766277727CB0197F908956B
:101660000E94430B0C94B40B0E94A60B38F00E940E
:10167000AD0B20F0952311F00C949D0B0C94A30B53
:1016800011240C942A0B0E94070B70F3959FC1F351
:10169000950F50E0551F629FF001729FBB27F00D20
:1016A000B11D639FAA27F00DB11DAA1F649F662775
:1016B000B00DA11D661F829F2227B00DA11D621FC4
:1016C000739FB00DA11D621F839FA00D611D221F7E
:1016D000749F3327A00D611D231F849F600D211D62
:1016E000822F762F6A2F11249F5750409AF0F1F0E5
:1016F00088234AF0EE0FFF1FBB1F661F771F881F4E
:1017000091505040A9F79E3F510580F00C949D0BDD
:101710000C942A0B5F3FE4F3983ED4F386957795BB
:101720006795B795F795E7959F5FC1F7FE2B880FF3
:10173000911D9695879597F9089597F99F6780E889
:1017400070E060E008959FEF80EC089500240A9413
:101750001616170618060906089500240A9412168C
:101760001306140605060895092E0394000C11F4BF
:10177000882352F0BB0F40F4BF2B11F460FF04C06C
:101780006F5F7F4F8F4F9F4F0895A1E21A2EAA1BC4
:10179000BB1BFD010DC0AA1FBB1FEE1FFF1FA21721
:1017A000B307E407F50720F0A21BB30BE40BF50B1E
:1017B000661F771F881F991F1A9469F760957095A7
:1017C000809590959B01AC01BD01CF010895EE0F6E
:1017D000FF1F881F8BBF0790F691E02D1994F89496
:0217E000FFCF39
:1017E2001213140E0F1011313233343536373839A3
:1017F2002A30233132333400FF00000000A604FCFB
:101802000154035303000000002A03EA02B9025400
:10181200656D70657261747572652069733A200036
:041822000D0A0000AB
:00000001FF
